:100000000C944F260C9480260C9480260C94802609
:100010000C9480260C9480260C9480260C948026C8
:100020000C9480260C9480260C9480260C948026B8
:100030000C9480260D946A0D0C9480260C948026D6
:100040000C9480260C94F1D70C9480260C94802676
:100050000C9480260C9480260C94C1FC0D94200DE9
:100060000C9480260C946C5B0C94625B0C94802640
:100070000C9480260C9480260C9480260C94802668
:100080000C9416530C9480260C9480260C94802695
:100090000C9480260C9480260C9480260C94802648
:1000A0000C9480260C9480260C94E8520C948026A4
:1000B0000C9480260C9480260C9480260C94BA52C2
:1000C0000C9480260C9480260C9480260C94802618
:1000D0000C9480260C9480260C9480260C94802608
:1000E0000C948026034C0A4CBD4CCF4D214F2A4F17
:1000F0003A4FEA014002C001E402C001C001C00160
:10010000C001C001C001C001C001C001C001C001E7
:10011000C001C001C001C001C001C001C001C001D7
:10012000C001C001C001C001C001C001C001F40292
:10013000C001C001C001C001C001C001C001C001B7
:100140005402C001C001C001C001C001C001C00112
:10015000C001C001C0011E02C2019E01C002EC022A
:10016000880260019C01780126022802A8028E0103
:100170003002B001DE029C01B402A402A0014401DD
:100180002A029A01DC017A02EC014E01F2028C0291
:100190005E02F8024C02EE017001EC013E02DE014B
:1001A000580270020403F401D2020802F601B00200
:1001B00068028002A2021002E002084AD73B3BCE4E
:1001C000016E84BCBFFDC12F3D6C74319ABD568356
:1001D0003DDA3D00C77F11BED9E4BB4C3E916BAA0E
:1001E000AABE000000803F05A84CCDB2D44EB9385D
:1001F00036A9020C50B9918688083CA6AAAA2ABE44
:10020000000000803F07634236B79BD8A71A3968C1
:100210005618AEBAAB558C1D3CB7CC5763BD6DEDCF
:10022000FD753EF6177231BF000000803F080000E8
:1002300000BE922449123EABAAAA2ABECDCCCC4C19
:100240003E00000080BEABAAAAAA3E00000000BF8C
:10025000000000803F0000000000084178D3BB434D
:1002600087D1133D190E3CC3BD4282AD2B3E68ECD5
:100270008276BED98FE1A93E4C80EFFFBE01C4FF5C
:100280007F3F0000000000000D94975B0D94BA4E74
:100290000D946E050C94079A0C94E1830D94BF5B4A
:1002A0000C94ED830C9480820D942A0A0C940A79A4
:1002B0000D94B73D0C94FE9C0C94379F0C94159DA7
:1002C0000D9416580D94A70E0D9465050C94D583C6
:1002D0000C9497820C9454AD0C94F6850D94257C67
:1002E0000D94065C0D94713E0C9462A40D943540FF
:1002F0000D9421580C949EAC0D94AB080C94118471
:100300000C945A7E0C94E7830D94CE430C94DB8CB2
:100310000C94D4780C94EF780D94083F0D943358D6
:100320000D94B23E0C944D840C94FF830C943FB119
:100330000D94AA800D94A15B0D9454580D941A58F5
:100340000D944F580C94CF4D0C949C830D94A28027
:100350000C94D6B00C94E6820D94467E0C94919940
:100360000D943D580C94C38C0D94283F0C9437A2E7
:100370000D945A420C9405840C943A4F0C94838348
:100380000D946B4F0D94684F0D94367C0D94CD45B4
:100390000C94D4A80D94A6800C9425790D949A8081
:1003A0000D9492800D94FC6D0C94CF830C943E843C
:1003B0000D94CE5E0C9469820D94AB5B0D941A5C27
:1003C0000C9418830C94319F0C94C2A40C940A4C86
:1003D0000D94C24E0D94C3500D942E5C0D94FC5B95
:1003E0000D9486060C94139D0D949E810D94A4810A
:1003F0000D94C60C0D94F33E0C9454F60C94034CDF
:100400000C9420840D9484060C94E9EE0C94809E48
:100410000D94A1810C940F9D0C94469B0D94F00CAF
:100420000D94AD810C9451F80C94DF8C0C94DC8C01
:100430000C94BD4C0C94CD820C943CA20D9416519E
:100440000C9458A40C944EAD0D94B44E0D942558B4
:100450000D942B580D949C5B0C9444830C944F8505
:100460000D9439580C94A6EE0C9431830C9432A25E
:100470000C9470830C94C0830D94E77C0D94105CF5
:100480000D94324F0C940D9D0C945D7E0D94E66D91
:100490000C94DB830C94289A0D94ED5B0C94F983F7
:1004A0000C942F9F0C94FF820D94D2500C9467A251
:1004B0000D94245C0C94A5830D9439050D94D95B9F
:1004C0000C943CA70D94B63D0C94339F0C9485ADD1
:1004D0000D94B3810C9472990C94309A0C9499AB4E
:1004E0000D94C2810C94B9780C94A9A20D942E7C21
:1004F0000C94BA870D94B55B0C9490850D943505DA
:100500000D94AA810D9424910C942F840D94277F2F
:100510000D9410580C941FA50D94CF5B0D94AE80D4
:100520000C9461A20C94359F0C94B1830C94D2AFBF
:100530000C9453990D94B2800C942A4F0C94AFAE46
:100540000C94638A0D94C0810D944B580C94F383E2
:100550000D942F580C945BA20D949E800C94807B7C
:100560000D94A7810C946DA20D9447580C9453A43C
:100570000C94119D0C94A3A40C940B840D94B68040
:100580000D941D580D9488060C9457830D94F75EB6
:100590000C94D28C0D9406910C945DA40C949485CB
:1005A0000C945D820D94C5810D9496800D94510735
:1005B0000C94908C0D948E060C94577E0D9441589B
:1005C0000D94B0810C940BB30D94FF500C94107AE1
:1005D0000C94B4820C949E780D940C580C94214F7A
:1005E0000C9462AE0D94C75B0D94F9500C9439A62F
:1005F0000D94E35B0C9416A50D947B6E0D945C0535
:100600000C94D2B30D949A7D0D949B810D94AC0BF8
:100610000D94BA800C9493AF0C9499820D947E053E
:100620000C9441A20D94B74E0C9434994E414E490E
:100630004E495459494E46CDCCCC3D0AD7233C17A0
:10064000B7D13877CC2B329595E6241FB14F0A00ED
:100650000020410000C84200401C4620BCBE4CCADD
:100660001B0E5AAEC59D7400407A10F35A00A0725A
:100670004E18090010A5D4E80000E87648170000DD
:10068000E40B54020000CA9A3B000000E1F50500AB
:100690000080969800000040420F000000A08601F4
:1006A000000000102700000000E8030000000064C4
:1006B00000000000000A000000000001000000002F
:1006C000002C76D888DC674F0823DFC1DFAE59E104
:1006D000B1B796E5E3E453C63AE651997696E8E673
:1006E000C28426EB898C9B62ED407C6FFCEFBC9C46
:1006F0009F40F2BAA56FA5F490055A2AF75C936B58
:100700006CF9676DC11BFCE0E40D47FEF520E6B512
:1007100000D0ED902E0300943577050080841E08EC
:100720000000204E0A000000C80C333333330F980A
:100730006E12831141EF8D2114893BE65516CFFED1
:10074000E6DB18D1844B381BF77C1D901DA4BBE45D
:1007500024203284725E228100C9F124ECA1E53D9F
:1007600027434F4D4D554E49434154494F4E004448
:10077000525952554E004552524F525300494E461F
:100780004F004543484F0047322F47332062616492
:1007900020706172616D65746572730A00536C65D7
:1007A00065702E2E2E005A2050726F6265205061A7
:1007B0007374204265640A005A2050726F6265208B
:1007C000506173742042656400486F6D652058590C
:1007D0002066697273740A00486F6D65205859204D
:1007E000466972737400205A3A200020593A20005A
:1007F00042656420583A20004D65736820706F6927
:100800006E742063616E6E6F742062652072657312
:100810006F6C7665640A00436C69636B20746F20AB
:10082000526573756D652E2E2E004E6F204D6F76BE
:10083000652E00456E642066696C65206C69737472
:100840000A00426567696E2066696C65206C697391
:10085000740A00286E6F2066696C65290043757202
:1008600072656E742066696C653A2000534420708E
:1008700072696E74696E67206279746520004E6FCC
:1008800074205344207072696E74696E670A005058
:1008900072696E742074696D653A2000496E7661E4
:1008A0006C69642050696E204D6F64650A000A53BC
:1008B000746174733A2046696C616D656E7420755D
:1008C0007365643A20002C204C6F6E67657374204A
:1008D0006A6F623A2000546F74616C2074696D65B0
:1008E0003A20002C204661696C65643A20002C2077
:1008F00046696E69736865643A20005072696E7467
:10090000733A200053746174733A200045202553D4
:10091000006F66660044454255473A004D3131321A
:100920002053687574646F776E004D3131332053F6
:100930000042656420436F6F6C696E672E2E2E0037
:100940004265642048656174696E672E2E2E0053DF
:100950004F564F4C2053563033204F46462E0043BF
:1009600048414D4245525F54454D504552415455C2
:100970005245004D4F54494F4E5F4D4F4445530033
:10098000544845524D414C5F50524F544543544991
:100990004F4E004155544F5245504F52545F5344AF
:1009A0005F5354415455530050524F4D50545F5370
:1009B0005550504F525400454D455247454E4359AE
:1009C0005F50415253455200434153455F4C4947A4
:1009D00048545F4252494748544E45535300544F80
:1009E00047474C455F4C494748545300534F465482
:1009F000574152455F504F574552004255494C446C
:100A00005F50455243454E54004C4556454C494E67
:100A1000475F44415441005A5F50524F42450041A4
:100A200055544F4C4556454C005052494E545F4A20
:100A30004F420050524F4752455353004155544F77
:100A40005245504F52545F54454D5000564F4C55EF
:100A50004D45545249430042494E4152595F46491F
:100A60004C455F5452414E534645520053455249FE
:100A7000414C5F584F4E5F584F4646004649524DD5
:100A8000574152455F4E414D453A4D61726C696E1A
:100A900020322E302E352E33202847697448756257
:100AA0002920534F555243455F434F44455F5552AC
:100AB0004C3A68747470733A2F2F67697468756262
:100AC0002E636F6D2F4D61726C696E4669726D7722
:100AD0006172652F4D61726C696E2050524F544F98
:100AE000434F4C5F56455253494F4E3A312E3020BA
:100AF0004D414348494E455F545950453A534F562E
:100B00004F4C20535630332045585452554445528B
:100B10005F434F554E543A3120555549443A636529
:100B20006465326132662D343161322D34373438A8
:100B30002D396231322D63353563363266333637BF
:100B400066660A002F2F20004D31343520533C6952
:100B50006E6465783E206F7574206F662072616EDA
:100B600067652028302D31290A003F4A206F7574AF
:100B7000206F662072616E67652028302E3031202C
:100B8000746F20302E33290A0046523A0020466CFA
:100B90006F773A200050726F7465637465642050FB
:100BA000696E0A00206F7574206F662072616E672F
:100BB000650A0020536572766F200020643A002099
:100BC000693A0020703A006469730043290A0061A1
:100BD000626C656420286D696E2074656D702000FC
:100BE000436F6C64206578747275646573206172FC
:100BF00065200046696C616D656E742072756E6F5C
:100C0000757420004F666673657473204170706C54
:100C1000696564004572723A20546F6F2066617294
:100C20002100546F6F206661722066726F6D2072B2
:100C300065666572656E636520706F696E740A0023
:100C4000454550524F4D204F4B0A00506F7765720B
:100C50002D6C6F7373207265636F766572792000F7
:100C6000446F6E65207072696E74696E6720666984
:100C70006C650A004D3737004D33310082077D0720
:100C800076076F07610720204D343231204900205C
:100C900020473239204939390A0061637469766521
:100CA0000A002053797374656D2076312E3031201F
:100CB000002020207C0A004E414E0020202E2020C3
:100CC0002000207C004C43443A0A004353563A0A21
:100CD0000020666F7220003A0A0A000A426564200A
:100CE000546F706F677261706879205265706F72AF
:100CF000740050726F62696E67204661696C65644A
:100D00000A0050726F62696E67204661696C6564A3
:100D100000446F6E652E0A003F496E76616C69640F
:100D20002073746F7261676520736C6F742E0A3F55
:100D3000557365203020746F2000473239205032BF
:100D40002066696E69736865642E0A005859206FC1
:100D5000757473696465207072696E7461626C6524
:100D6000207261646975732E0A003F4572726F725A
:100D700020696E20427573696E65737320436172DA
:100D800064206D6561737572656D656E742E0A0001
:100D90004D616E75616C6C792070726F62696E67FF
:100DA00020756E726561636861626C6520706F6941
:100DB0006E74732E0A0050726F62696E67206172E2
:100DC0006F756E642028004D65736820696E7661CA
:100DD0006C6964617465642E2050726F62696E671D
:100DE000206D6573682E0A004D657368207A657200
:100DF0006F65642E0A0044656661756C74207374B7
:100E00006F7261676520736C6F7420302073656C3E
:100E100065637465642E0A004C6F6164696E6720B7
:100E2000746573745F7061747465726E2076616C42
:100E30007565732E0A0A00496E76616C69642074C8
:100E40006573745F7061747465726E2076616C7521
:100E5000652E20282D3120746F2032290A0A004C7B
:100E60006F636174696F6E7320696E76616C69641B
:100E7000617465642E0A0A00456E74697265204DBE
:100E800065736820696E76616C6964617465642E4F
:100E90000A0A00726F746174696F6E206D617472FA
:100EA00069783A0A005A5F6D6F76655F636F6D709F
:100EB0000A00206D61783A00206D696E3A00417831
:100EC000697320004572726F722077726974696E5F
:100ED0006720746F20454550524F4D210A006275BE
:100EE00073793A2070617573656420666F7220694A
:100EF0006E7075740A00627573793A20706175734B
:100F0000656420666F7220757365720A006275737E
:100F1000793A2070726F63657373696E670A004D6A
:100F2000363030004E6F20436865636B73756D20FB
:100F300077697468206C696E65206E756D62657284
:100F40002C204C617374204C696E653A20006368F4
:100F500065636B73756D206D69736D617463682C67
:100F6000204C617374204C696E653A20004C696EA8
:100F700065204E756D626572206973206E6F7420F6
:100F80004C617374204C696E65204E756D6265729C
:100F90002B312C204C617374204C696E653A200013
:100FA0004D313130005344207265616420657272A6
:100FB0006F720A002121204B494C4C2063617573EC
:100FC0006564206279204B494C4C20627574746FC3
:100FD0006E2F70696E0A002121204B494C4C206312
:100FE000617573656420627920746F6F206D75631D
:100FF0006820696E6163746976652074696D652027
:101000002D2063757272656E7420636F6D6D616EF5
:10101000643A2000506C6561736520526573657495
:10102000005052494E5445522048414C54454400CA
:1010300025533A202553004B494C4C45442E200063
:101040005072696E7465722068616C7465642E20DC
:101050006B696C6C28292063616C6C6564210A00E3
:101060006563686F3A004572726F723A00363726D0
:10107000033C3D380E2E303E121A1C1808440AFF5D
:1010800043080900013F454550524F4D2073746F8E
:1010900072616765206E6F7420617661696C616250
:1010A0006C652E0A00486F74656E6420746F6F2043
:1010B000636F6C640A004F46460A0046616465200F
:1010C0004865696768742000426564204C657665F0
:1010D0006C696E6720004661696C656420746F20DE
:1010E000656E61626C6520426564204C6576656C56
:1010F000696E670A00496E76616C6964206D65737C
:10110000682E0A0076616C69640A53746F726167B5
:101110006520736C6F743A20004D657368206973A5
:1011200020003F496E76616C69642073746F726150
:10113000676520736C6F742E0A004D34323120695C
:101140006E636F727265637420706172616D657435
:1011500065722075736167650A00416363656C653C
:10116000726174696F6E3A205000204D39322058F8
:101170000020204D61783A200020204D696E3A20F1
:1011800000536F667420656E6473746F70733A20D9
:10119000004D3630303A20546F6F20436F6C64003E
:1011A000507265737320627574746F6E20746F2053
:1011B00068656174206E6F7A7A6C650A00496E7397
:1011C0006572742066696C616D656E7420616E6411
:1011D00020707265737320627574746F6E0A004DAF
:1011E00032342053256C642054256C640047393216
:1011F0002E392045257300473120462564004739A4
:10120000322E39205A2573004731205A3020463279
:10121000303000473120582573205925732046333C
:10122000303030004D34323020532569205A257338
:10123000004D3130362050256920532569004D324C
:10124000303020442573004739322E392045305A3A
:10125000300A47315A320A47323852305859004D15
:10126000343230205330205A300020496E76616C81
:101270006964206578747275646572200053544FF8
:10128000505045442E20005072696E746572207370
:10129000746F707065642064756520746F2065726A
:1012A000726F72732E2046697820746865206572AB
:1012B000726F7220616E6420757365204D39393903
:1012C00020746F20726573746172742E20285465C7
:1012D0006D706572617475726520697320726573D3
:1012E00065742E205365742069742061667465727C
:1012F0002072657374617274696E67290A00212116
:101300002053544F502063616C6C656420626563A8
:1013100061757365206F6620424C546F7563682059
:101320006572726F72202D20726573746172742001
:1013300077697468204D3939390A004732362048B8
:10134000656174696E67204E6F7A7A6C650047320A
:10135000362048656174696E672042656400576194
:101360006974696E6720666F722068656174757054
:101370002E0A004669786564204C656E67746820A3
:101380005072696D6500446F6E65205072696D69B9
:101390006E67004D616E75616C207072696D696E6B
:1013A000672E2E2E004732362043616E63656C65D2
:1013B00064004C656176696E6720473236003F53A2
:1013C000706563696669656420582C5920636F6F86
:1013D0007264696E617465206F7574206F66206237
:1013E0006F756E64732E0A003F285229657065611F
:1013F000742076616C7565206E6F7420706C6175F9
:101400007369626C653B206D757374206265206141
:1014100074206C6561737420312E0A003F5370652F
:10142000636966696564206E6F7A7A6C652074659D
:101430006D7065726174757265206E6F7420706C6A
:1014400061757369626C652E0A003F53706563694C
:10145000666965642066696C616D656E7420736988
:101460007A65206E6F7420706C61757369626C654B
:101470002E0A003F53706563696669656420707267
:10148000696D65206C656E677468206E6F7420707E
:101490006C61757369626C652E0A003F53706563F9
:1014A0006966696564206E6F7A7A6C652073697A03
:1014B00065206E6F7420706C61757369626C652E47
:1014C0000A003F52657472616374696F6E204D75D6
:1014D0006C7469706C696572206D757374206265D7
:1014E000207370656369666965642E0A003F5370F6
:1014F00065636966696564205265747261637469C5
:101500006F6E204D756C7469706C696572206E6FBA
:101510007420706C61757369626C652E0A003F53AC
:101520007065636966696564206C617965722068BD
:101530006569676874206E6F7420706C617573697B
:10154000626C652E0A0043292E0A003F53706563C2
:101550006966696564206265642074656D70657292
:101560006174757265206E6F7420706C617573693B
:10157000626C65202834302D004732362073746148
:101580007274696E672E2E2E0A0050726F6265208B
:101590005A204F666673657400416476616E6365B8
:1015A000642053657474696E677300554E4C4F41E7
:1015B000442046494C414D454E540046494C414D0E
:1015C000454E54204348414E474500436D643A2000
:1015D00053572D4D6F646500436D643A2053746F0B
:1015E0007700436D643A204465706C6F7900436DF9
:1015F000643A2053656C662D5465737400436D64C2
:101600003A20526573657400556E52657420560019
:10161000556E526574206D6D00486F70206D6D00C1
:101620005265747261637420205600526574726151
:101630006374206D6D004175746F526574722E0075
:101640004C6F61642053657474696E6773005265F2
:1016500073746F72652044656661756C74730053B2
:10166000746F72652053657474696E67730050728D
:1016700065686561742041425320436F6E66005077
:1016800072656865617420504C4120436F6E66003E
:1016900052756E6F75742053656E736F7200424C95
:1016A000546F756368004D37303220542564004D07
:1016B00036303020423020542564004D37303220FF
:1016C0003B2564004D3730312054256400436F6E54
:1016D00074696E7565005075726765206D6F72650F
:1016E00000524553554D45204F5054494F4E533AA3
:1016F000005052494E54205041555345440020203B
:101700004E6F7A7A6C653A20004C6F6164206D6D83
:1017100000556E6C6F6164206D6D0046696C2E2003
:101720004469612E004520696E206D6DC2B3004D85
:101730003330332055312045256920532569005029
:101740004944204175746F74756E65202A005049B4
:10175000442D44202A005049442D49202A00504954
:10176000442D50202A002008204661637400200880
:10177000204D6178002008204D696E004175746F1E
:1017800074656D70005654726176204D696E005616
:101790006D696E00566D6178204500566D61782048
:1017A0005A00566D6178205900566D6178205800B6
:1017B0003F5A206F7574206F662072616E676520D6
:1017C00028003F59206F7574206F662072616E6724
:1017D0006520282D003F58206F7574206F66207299
:1017E000616E676520282D0050726F6265204F661C
:1017F00066736574205800656E7175657565696EF0
:10180000672022006F6B00526573656E643A20009A
:1018100025697920256964202569682025696D205E
:101820002569730023646566696E652044454641F9
:10183000554C545F004B6420004B6920004B7020D6
:1018400000504944204175746F74756E6520666957
:101850006E69736865642120507574207468652012
:101860006C617374204B702C204B6920616E642076
:101870004B6420636F6E7374616E74732066726F55
:101880006D2062656C6F7720696E746F20436F6E98
:1018900066696775726174696F6E2E680A005049D7
:1018A00044204175746F74756E65206661696C655E
:1018B00064212074696D656F75740A000A20436C99
:1018C000617373696320504944200A00204B643AD5
:1018D0002000204B693A2000204B703A2000205411
:1018E000753A2000204B753A2000206D61783A202F
:1018F00000206D696E3A200020643A200020626961
:1019000061733A2000504944204175746F74756EBC
:10191000652073746172740A0050494420417574E3
:101920006F74756E65206661696C6564212054650D
:101930006D706572617475726520746F6F2068696F
:1019400067680A00504944204175746F74756E656C
:10195000206661696C656421204261642065787449
:101960007275646572206E756D6265720A004572EB
:10197000723A207574663820666F6E74206E6F74CC
:1019800020696E697469616C697A65642E00000C67
:101990000D00FE07022603BC017FFE08FE08FE05BF
:1019A000080806000040F0C88888987810050808E4
:1019B000060000C0F88888888888F80505050600B4
:1019C000012030F830200508080600002070F820BB
:1019D000202020E00509090600FF2070A8A8B8888B
:1019E000887020050606060001E08CEA8C8A0A054C
:1019F00009090600FFF8A88888888888A8F8050AD9
:101A00000A0600FE205050505088A8A88870030392
:101A10000306000340A040FFFFFFFFFFFFFFFFFFA3
:101A2000FFFFFFFFFFFFFFFFFFFFFFFFFF000000C3
:101A30000605FF0107070602008080808080008085
:101A4000030303060105A0A0A0050606060000503A
:101A5000F85050F8500509090600FF2070A8A07042
:101A600028A87020050707060000C8C81020409865
:101A70009805070706000040A0A040A89068010351
:101A8000030602058080800309090601FF2040400B
:101A90008080804040200309090601FF80404020EB
:101AA000202040408005070706000020A870207015
:101AB000A8200505050600012020F82020020303C8
:101AC0000601FFC04080050101060003F802020282
:101AD000060100C0C00507070600000810102040DE
:101AE0004080050707060000708898A8C888700322
:101AF000070706010040C040404040E005070706D8
:101B00000000708808102040F8050707060000F85C
:101B10000810300888700507070600001030509044
:101B2000F81010050707060000F880F00808887014
:101B3000050707060000304080F088887005070719
:101B4000060000F8081010202020050707060000F6
:101B5000708888708888700507070600007088887C
:101B600078081060020505060100C0C000C0C00270
:101B700006060601FFC0C000C0408003050506013F
:101B8000012040804020050303060002F800F8030E
:101B9000050506010180402040800507070600007A
:101BA000708810202000200507070600007088B804
:101BB000A8B88070050707060000708888F8888834
:101BC00088050707060000F04848704848F00507F8
:101BD000070600007088808080887005070706006F
:101BE00000F04848484848F0050707060000F8801C
:101BF00080F08080F8050707060000F88080F080FC
:101C0000808005070706000070888080988870052E
:101C10000707060000888888F88888880307070671
:101C20000100E04040404040E00507070600003862
:101C30001010101090600507070600008890A0C0E3
:101C4000A09088050707060000808080808080F8CB
:101C500005070706000088D8A88888888805070730
:101C60000600008888C8A89888880507070600002D
:101C700070888888888870050707060000F08888C3
:101C8000F080808005070706000070888888A8908B
:101C900068050707060000F08888F0A0908805070F
:101CA0000706000070888070088870050707060026
:101CB00000F8202020202020050707060000888843
:101CC00088888888700507070600008888888850FB
:101CD000502005070706000088888888A8A85005B6
:101CE00007070600008888502050888805070706E7
:101CF000000088885020202020050707060000F8F3
:101D00000810204080F80309090601FFE080808068
:101D100080808080E005070706000080404020109A
:101D200010080309090601FFE020202020202020C0
:101D3000E00503030600052050880501010600FEAA
:101D4000F803030306010580402005050506000091
:101D500070087888780507070600008080F088887A
:101D600088F005050506000070808088700507076B
:101D700006000008087888888878050505060000B0
:101D80007088F08070050707060000304840E0408A
:101D900040400507070600FE7088888878087005AF
:101DA00007070600008080F08888888803070706F8
:101DB00001004000C0404040E00409090601FE1057
:101DC000003010101010906005070706000080809A
:101DD0008890E09088030707060100C0404040401B
:101DE00040E0050505060000D0A8A8A8A80505053F
:101DF000060000B0C88888880505050600007088C0
:101E00008888700507070600FEF0888888F08080C3
:101E10000507070600FE7888888878080805050504
:101E2000060000B0C88080800505050600007880A7
:101E30007008F00507070600002020F82020201871
:101E400005050506000088888898680505050600D0
:101E50000088888850200505050600008888A8A805
:101E60005005050506000088502050880507070624
:101E700000FE88888850204080050505060000F88F
:101E8000102040F80309090601FF2040404080402F
:101E90004040200109090602FF8080808080808008
:101EA00080800309090601FF8040404020404040F7
:101EB0008005030306000248A890FF416D61782069
:101EC0004500416D6178205A00416D6178205900CC
:101ED000416D6178205800412D54726176656C0027
:101EE000412D5265747261637400416363656C00D7
:101EF0004A756E6374696F6E204465760050726F28
:101F000062652059204F66667365740050726F6277
:101F1000652058204F66667365740045737465705C
:101F2000732F6D6D005A73746570732F6D6D00594A
:101F300073746570732F6D6D005873746570732FB3
:101F40006D6D00496E6974004D34323800496E6918
:101F50007469616C697A6520454550524F4D005354
:101F6000746570732F6D6D0050726F6265204F66DF
:101F70006673657473004A65726B00416363656CD8
:101F800065726174696F6E0056656C6F6369747910
:101F90000053657420486F6D65204F6666736574E5
:101FA00073004E65787420506F696E7400446F6ED4
:101FB00065004E65787400436F6E6669677572617F
:101FC00074696F6E00526573756D65205072696E2D
:101FD000740053746F70205072696E74003F004338
:101FE000616E63656C004F6666004F6E0053746FE0
:101FF00070004368616E67652046696C616D656E4F
:1020000074005072656865617420437573746F6DF8
:10201000004261636B004D3231004174746163684A
:10202000204D65646961004D32320052656C656116
:102030007365204D656469610041626F757420505D
:1020400072696E746572004D363030204230004D3A
:10205000656469612052656C6561736564005475DF
:102060006E65005374617274205072696E7400431F
:10207000616E6E6F7420656E746572207375626434
:1020800069723A2000022E2E000152656672657355
:102090006800536F667420456E6473746F707300CC
:1020A0004D31303920532569004D313930205325C9
:1020B0006900496E666F2053637265656E00426504
:1020C000642054656D7000486F74656E64205465BB
:1020D0006D70004732392050362043202D0048656E
:1020E0006967687420416D6F756E740041646A752C
:1020F0007374204D6573682048656967687400478C
:10210000323920503420540046696E652054756E73
:102110006520436C6F73657374004732362043202B
:102120004225692048256920500056616C69646128
:10213000746520437573746F6D204D657368004737
:1021400032380A4732362043204238302048323075
:102150003020500056616C6964617465204D657370
:1021600068202841425329004732380A4732362036
:102170004320423630204831373520500056616CBC
:102180006964617465204D6573682028504C41294D
:1021900000473239204A2569004C6576656C204D30
:1021A000657368005369646520506F696E747300CD
:1021B00047726964204D657368204C6576656C696B
:1021C0006E6700473239204A3000332D506F696EF8
:1021D00074204C6576656C696E6700473239205013
:1021E00033205220432E2569004D616E75616C20AD
:1021F00046696C6C2D696E0046696C6C2D696E20A9
:10220000416D6F756E74004D65736820696E7661FF
:102210006C6964617465642E0A0047323920490094
:10222000496E76616C696461746520436C6F736597
:10223000737400496E76616C696461746520416CE9
:102240006C00473239205031204300436F6E74696F
:102250006E756520426564204D6573680046696C43
:102260006C2D696E204D657368004275696C642041
:10227000437573746F6D204D657368004732380A7B
:102280004D313930205338300A4D313039205332F6
:1022900030300A4732392050310A4D313034205322
:1022A000300A4D313430205330004275696C64205F
:1022B0004D657368202841425329004732380A4D42
:1022C000313930205336300A4D31303920533137CF
:1022D000350A4732392050310A4D313034205330DD
:1022E0000A4D313430205330004275696C64204D02
:1022F0006573682028504C41290020627974657309
:102300003B20637263200053657474696E677320A9
:1023100053746F7265642028004E6F2045455052FB
:102320004F4D2E0A00454550524F4D206461746157
:1023300073697A65206572726F722E0A003F4D656F
:10234000736820746F6F2062696720666F72204522
:102350004550524F4D2E0A0055424C207265736510
:10236000740A00206C6F616465642066726F6D2072
:1023700073746F726167652E0A004D657368200083
:102380003F43616E277420656E61626C652000209A
:10239000696E697469616C697A65642E0A0A002045
:1023A00073746F7265642073657474696E677320EB
:1023B0007265747269657665642028004572723AA8
:1023C00020454550524F4D20435243002028636121
:1023D0006C63756C6174656429210A0020213D20BD
:1023E00000454550524F4D20435243206D69736D57
:1023F00061746368202D202873746F7265642920CE
:10240000004572723A20454550524F4D20496E6446
:10241000657800496E6465783A20004572723A200A
:10242000454550524F4D2056657273696F6E0020BE
:102430004D61726C696E3D563736290A004545502C
:10244000524F4D2076657273696F6E206D69736DA2
:10245000617463682028454550524F4D3D002074FB
:102460006F6F206C6F6E6720657874727573696F1B
:102470006E2070726576656E7465640A0020636F05
:102480006C6420657874727573696F6E2070726504
:1024900076656E7465640A00486F6D652025732546
:1024A00073257320466972737400220A00556E6B9F
:1024B0006E6F776E20636F6D6D616E643A202200DF
:1024C00024F4D43050C38E20C2A24017828B7011E6
:1024D000127A910D816CD90AA861E108C758660784
:1024E000615143061E4B5D05C145A7041A41110405
:1024F000093D9803713931034036DB02653391029F
:10250000D4305402802E1D02632CEE01752AC501C1
:10251000B028A001102781018F2564012B244B01D5
:10252000E0223401AC211F018D200D01801FFC0031
:10253000841EED00971DDF00B81CD200E61BC6000C
:10254000201BBC00641AB200B219A8000A19A0002E
:102550006A189900D117910040178B00B5168400B6
:1025600031167E00B31579003A157300C7146F0059
:1025700058146A00EE1366008813630025135E008A
:10258000C7125B006C12570015125400C1115100A4
:1025900070114F0021114B00D61049008D104700DB
:1025A0004610440002104200C00F4000800F3E0061
:1025B000420F3C00060F3B00CB0E3800930E370055
:1025C0005C0E3500270E3400F30D3200C10D3100D2
:1025D000900D3000600D2E00320D2D00050D2C00E9
:1025E000D90C2B00AE0C2900850C29005C0C2700AF
:1025F000350C27000E0C2600E80B2400C40B240029
:10260000A00B23007D0B23005A0B2100390B210066
:10261000180B2000F80A1F00D90A1E00BB0A1E0072
:102620009D0A1D00800A1D00630A1C00470A1B004A
:102630002C0A1B00110A1A00F7091A00DD091900FB
:10264000C4091900AB091900920917007B09180089
:10265000630917004C0916003609160020091600F8
:102660000A091500F5081500E0081400CC0814004C
:10267000B8081400A4081400900813007D08120084
:102680006B081300580812004608120034081100A5
:10269000230811001208110001081100F0071000B2
:1026A000E0071000D0071000C0071000B0070F00AF
:1026B000A107100091070E0083070F0074070F0099
:1026C00065070E0057070E0049070E003B070D0077
:1026D0002E070E0020070D0013070D0006070D0042
:1026E000F9060C00ED060D00E0060C00D4060C0007
:1026F000C8060C00BC060C00B0060C00A4060B00BB
:1027000099060C008D060B0082060B0077060B0065
:102710006C060B0061060A0057060B004C060A0007
:1027200042060A0038060A002E060A0024060A009D
:102730001A060A001006090007060A00FD0509002E
:10274000F4050900EB050900E2050900D9050900B7
:10275000D0050900C7050900BE050900B505080038
:10276000AD050800A50509009C05080094050800B2
:102770008C050800840508007C0508007405080025
:102780006C050700650508005D0507005605080093
:102790004E050700470507004005080038050700FB
:1027A000310507002A050700230507001C05060060
:1027B000160507000F0507000805060002050700BB
:1027C000FB040600F5040700EE040600E80406001A
:1027D000E2040700DB040600D5040600CF0406006F
:1027E000C9040600C3040600BD040600B7040600C1
:1027F000B1040500AC040600A6040600A004050010
:102800009B04060095040500900406008A04050058
:1028100085040500800406007A040500750405009F
:10282000700405006B0405006604050061040500E2
:102830005C04050057040500520405004D04050022
:1028400048040500430405003E0404003A04050062
:1028500035040500300404002C040500270404009E
:10286000230405001E0404001A04040016040500D5
:10287000110404000D04040009040500040404000C
:1028800000040400FC030400F8030400F403040043
:10289000F0030400EC030400E8030400E403040074
:1028A000E0030400DC030400D8030400D4030400A4
:1028B000D0030400CC030400C8030300C5030300D5
:1028C00024F404D9201BC40C5C0E9804C4095F02D4
:1028D00065077101F405F900FB04B30048048700A3
:1028E000C10369005803550003034500BE023A00C6
:1028F0008402310053022A0029022500040220002C
:10290000E4011C00C8011900AF0117009801140070
:1029100084011300710110006101100051010E00CB
:1029200043010D0036010B002B010B0020010B00B1
:10293000150109000C01090003010800FB00080053
:10294000F3000800EB000700E4000600DE000600CC
:10295000D8000600D2000600CC000500C700050024
:10296000C2000500BD000400B9000400B500040069
:10297000B1000400AD000400A9000400A50003009C
:10298000A20003009F0004009B00030098000300C6
:102990009500020093000300900003008D000200E8
:1029A0008B00030088000200860002008400030000
:1029B000810002007F0002007D0002007B00020017
:1029C0007900020077000100760002007400020026
:1029D00072000100710002006F0002006D00010032
:1029E0006C0002006A00010069000200670001003B
:1029F0006600010065000100640002006200010041
:102A000061000100600001005F0002005D00010044
:102A10005C0001005B0001005A0001005900010048
:102A20005800010057000100560001005500010048
:102A30005400010053000000530001005200010047
:102A400051000100500001004F0001004E00000045
:102A50004E0001004D0001004C0001004B00000041
:102A60004B0001004A00010049000100480000003D
:102A70004800010047000100460000004600010038
:102A80004500000045000100440001004300000033
:102A9000430001004200000042000100410000002C
:102AA00041000100400001003F0000003F00010024
:102AB0003E0000003E0001003D0000003D0001001E
:102AC0003C0000003C0000003C0001003B00000016
:102AD0003B0001003A0000003A000100390000000C
:102AE0003900010038000000380000003800010003
:102AF00037000000370001003600000036000000FB
:102B000036000100350000003500000035000100EE
:102B100034000000340000003400010033000000E5
:102B200033000000330001003200000032000000DA
:102B300032000100310000003100000031000100CE
:102B40003000000030000000300001002F000000C5
:102B50002F0000002F0000002F0001002E000000B9
:102B60002E0000002E0001002D0000002D000000AE
:102B70002D0000002D0001002C0000002C000000A2
:102B80002C0000002C0001002B0000002B00000096
:102B90002B0000002B0001002A0000002A0000008A
:102BA0002A0000002A00010029000000290000007E
:102BB0002900000029000000290001002800000071
:102BC0002800000028000000280000002800010064
:102BD0002700000027000000270000002700000059
:102BE000270001002600000026000000260000004B
:102BF000260000002600010025000000250000003E
:102C0000250000002500000025000000250001002F
:102C10002400000024000000240000002400000024
:102C20002400010023000000230000002300000016
:102C30002300000023000000230000002300010007
:102C400022000000220000002200000022000000FC
:102C500022000000220001002100000021000000ED
:102C600021000000210000002100000021000000E0
:102C700021000100200000002000000020000000D2
:102C800020000000200000002000000020000000C4
:102C9000200001001F0000001F0000001F000000B6
:102CA0001F0000001F0000001F0000001F000100A7
:102CB0001E0000001E0000001E0000001E0000009C
:102CC000393000003325000087190000B00F0000E4
:102CD000DB080000BD040000740200003F0100009A
:102CE0007C3C3E5E2B3D3F2F5B5D3B2C2A225C00F3
:102CF0004D6F74696F6E0046616465204865696751
:102D00006874004732392057004F7574707574200D
:102D100055424C20496E666F0055424C20546F6FEF
:102D20006C73004F7574707574204D657368204D19
:102D30006170004D6573682053746F726167650040
:102D40004D657368204564697400537465702D4245
:102D5000792D537465702055424C0047323920411B
:102D60000041637469766174652055424C004732B6
:102D70003920440044656163746976617465205547
:102D8000424C002568753A2530326875002530328E
:102D900068753A25303268750020202020202020D8
:102DA000001FE020102010201010201020201020E4
:102DB0001030300840048003001FE03FF03FF03F38
:102DC000F01FE01FE03FF03FF03FF00FC00780032F
:102DD000003FFFF038007030FC3020FC10207810ED
:102DE0002030102C00D02E31D02F7BD02F7BD02E36
:102DF00031D02C00D020301020781020FC1030FC76
:102E0000303800703FFFF03FFFF0380070318630FF
:102E10002387102787902F87D02F03D020301020B2
:102E200078102078102030102F03D02F87D02787DC
:102E3000902387103186303800703FFFF01FFFF875
:102E40001FFFF80410400208200208200410400868
:102E50002080104100104100082080041040000034
:102E6000001FFFF81FFFF800000000001FC0000057
:102E7000FFF80000FFF80003FFFE0007FFE7000F68
:102E8000FFC3800FFF01803FFC00403FF800603F20
:102E9000F000E07FE003F07F8007F07F000FF07C20
:102EA00000FFF07801FFF070007FF07C003FF03F02
:102EB000000FE03FE007E03FE003C00F0007800E97
:102EC000007F800003FF00000FFE0000FFF80000FD
:102ED0007FF000001FC00000000000496E76616CAA
:102EE00069642065787472756465720A0020436FA6
:102EF000756E7420583A00453100626564002C20DC
:102F000073797374656D2073746F707065642120BC
:102F10004865617465725F49443A20004865617490
:102F2000696E67204661696C656400486561746913
:102F30006E67206661696C656400202D20496E769D
:102F4000616C6964206578747275646572206E7551
:102F50006D62657220210A00544845524D414C2053
:102F600052554E4157415900546865726D616C204D
:102F700052756E61776179004572723A204D415801
:102F800054454D50004D415854454D502074726980
:102F9000676765726564004572723A204D494E5408
:102FA000454D50004D494E54454D5020747269674F
:102FB0006765726564004D383420582059205A20C6
:102FC0004500202F002042403A0020403A00205780
:102FD0003A0070012C0190012701B0012201C001CB
:102FE0001D01F00118011002130130020E016002F0
:102FF000090190020401C002FF000003FA0040032F
:10300000F5008003F000D003EB002004E60070041C
:10301000E100E004DC004005D700C005D200400616
:10302000CD00D006C8008007C3003008BE00F008FD
:10303000B900C009B400B00AAF00B00BAA00D00CB0
:10304000A500000EA000500F9B00C010960050126B
:10305000910000148C00C0158700B0178200B019D1
:103060007D00D01B7800001E730040206E0090226F
:103070006900F024640040275F0090295A00E02B8B
:103080005500102E500020304B0010324600E03327
:10309000410090353C001037370070383200A039BD
:1030A0002D00B03A2800A03B2300603C1E00103DDC
:1030B0001900903D1400103E0F00703E0A00C03E03
:1030C0000500003F0000403FFBFF803FF6FFC03F90
:1030D000F1FF54656D7065726174757265005072B0
:1030E000656865617420414253005072656865618E
:1030F0007420504C410046616E2053706565640039
:103100004D61696E004D38340044697361626C65CD
:10311000205374657070657273004C6576656C2021
:10312000436F726E657273004175746F20486F6DE6
:1031300065005072656865617420504C4120456E91
:1031400064005072656865617420504C412042658E
:103150006400507265686561742041425320426585
:103160006400507265686561742041425320456E69
:103170006400436F6F6C646F776E004261627973B5
:10318000746570205A00466C6F77004D6573682037
:10319000456469746F7200687474703A2F2F6D61A2
:1031A000726C696E66772E6F726700322E302E3524
:1031B0002E33004D313030302053002020506C61D0
:1031C0006E6E657242756666657242797465733AB1
:1031D00020002046726565204D656D6F72793A203A
:1031E00000436F6D70696C65643A204465632032FA
:1031F0003720323032300A00204C61737420557011
:1032000064617465643A20323032302D30332D33AE
:1032100031207C20417574686F723A2043696D6576
:10322000646163612F436F7074657254656320310C
:103230002E362E35200A00322E302E352E330A003F
:103240004D61726C696E0020536F667477617265B0
:103250002052657365740A00205761746368646F57
:10326000672052657365740A002042726F776E2082
:103270006F75742052657365740A00204578746513
:10328000726E616C2052657365740A00506F7765C9
:103290007255700A006175746F25632E670047329E
:1032A000385859004D31303031006572726F7220DC
:1032B00077726974696E6720746F2066696C650A3D
:1032C00000446F6E6520736176696E672066696C75
:1032D000652E0A004D3239002553202563202563D1
:1032E00020256320256300656E6473746F707320FE
:1032F0006869743A2000020000000000000000002D
:1033000000000000000000000000000000000000BD
:1033100000000000000000000000000000000000AD
:10332000000000000000000000000000000000009D
:10333000000000000000000000000000000000008D
:10334000000000000000000000000000000000007D
:10335000000000000000000000000000000000006D
:10336000000000000000000000000000000000005D
:10337000000000000000000000000000000000004D
:10338000000000000000000000000000000000003D
:103390000000000000000001FFFE001E7807E000B2
:1033A0003E00F3C003C00007FFFE00FE7F07E00001
:1033B0003E07F3F803C0000FFFFE01FE7F03F0009D
:1033C0007E0FF3FC03C0001FFFFE03FE7F83F000AF
:1033D0007E1FF3FE03C0001FFFFE07FE7FC1F80043
:1033E000FC3FF3FF03C0003F80000FE007E1F8005F
:1033F000FC7F003F83C0003F00000FE007E0FC01BE
:10340000F87F003F83C0003F00000FC003E0FC01D5
:10341000F87E001F83C0003F00000FC003E07C0166
:10342000F07E001F83C0003F80001F8001F07E03FC
:10343000F0FC000FC3C0003FE0001F8001F07E03DE
:10344000F0FC000FC3C0001FFFF81F8001F03E0317
:10345000E0FC000FC3C00007FFFE1F8001F01F0744
:10346000C0FC000FC3C00003FFFF1F8001F01F8FCF
:10347000C0FC000FC3C00000007F9F8001F01F8FC1
:10348000C0FC000FC3C00000003F9F8001F00F8F01
:1034900080FC000FC3C00000001F9FC003F00FDFBF
:1034A00080FE001FC3C00000001F8FC003E007DFC5
:1034B000007E001F83C00000001F8FE007E007FFB1
:1034C000007F003F83E00000003F8FE007E003FE45
:1034D000007F003F83E0001FFFFF07FE7FC003FE69
:1034E000003FF3FF03FFFC1FFFFF03FE7F8003FE8F
:1034F000001FF3FE03FFFC1FFFFE01FE7F0001FC27
:10350000000FF3FC01FFFC1FFFFC00FE7F0001FC2D
:103510000007F3F800FFFC1FFFF0001E780000F822
:103520000000F3C0003FFC000000000000000000AD
:10353000000000000000000000000000000000008B
:10354000000000000000000000000000000000007B
:10355000000000000000000000000000000000006B
:10356000000000000000000000000000000000005B
:10357000000000000000000000000000000000004B
:103580000000000000000000000000000008300003
:10359000410000000000000000000020800924001D
:1035A0004100000000000000000000318008200001
:1035B0004100000000000000000000319E7934F35B
:1035C000C1ED8000000000000000002A9249249212
:1035D00041350000000000000000002A924924E26A
:1035E00041150000000000000000002492492482E0
:1035F0004137000000000000000000249E7924F301
:10360000C1E2000000000000000000000000000017
:1036100000020000000000000000000000000000A8
:10362000000400000000000000000001E00080072E
:10363000C000000000000000000000020000800147
:103640000000000000000000000000020F3CCF312D
:103650000F3800000000000000000002092289214C
:1036600009200000000000000000000209228E2155
:103670000E20000000000000000000020922882146
:10368000082000000000000000000001EF3CCF21F6
:103690000F380000000000000000000000200000C3
:1036A00000000000000000000000000000200000FA
:1036B000000000000000000000000000000000000A
:1036C00000000000000000000000000000000000FA
:1036D00000000000000000000000000000000000EA
:1036E00000000000000000000000000000000000DA
:1036F0000000000000000001FFFFFFFFFFFFFFFFD1
:10370000FFFFFFFFFF0FFFFFFFFFFFFFFFFFFFFFB9
:10371000FFFFFF1E0000000000000000000007FF88
:10372000FF380000000000000000000003FFFF70F1
:103730000000000000000000000001FFFF6000002A
:10374000000000000000000000FFFF60000000001B
:10375000000000000000007FFFC00000000000002B
:1037600000007800003FFFC00FC0FC000000000018
:103770007818001FFFC03FE1FF0000000000783C08
:10378000000FFFC07FF3FF8000000000783C0007BF
:10379000FFC0FFFFFFC000000000783C0003FFC136
:1037A000F87F87E00000000078000001FFC1F03FD3
:1037B00003E00000000078000000FFC1E01E01E00F
:1037C0001F0003E0783C03F07FC1E01E01E07FC0F2
:1037D0000FF8783C07FC3FC1E01E01E1FFE01FFC51
:1037E000783C0FFE1FC1E01E01E3FFF03FFE783C76
:1037F0001FFE0FC1E01E01E3F3F83F3E783C3F3F60
:1038000007C1E01E01E7E0FC7C1F783C3E1F07C1BA
:10381000E01E01E7C07C7C0F783C3C0F03C1E01E3A
:1038200001E7807C780F783C3C0F03C1E01E01E784
:10383000803C7800783C3C0F03C1E01E01E7803CEF
:103840007800783C3C0F03C1E01E01E7803C780023
:10385000783C3C0F03C1E01E01E7C03C7800783C97
:103860003C0F03C1E01E01E3E03C78007C3C3C0FD0
:1038700003C1E01E01E3FF3FF8007FBC3C0F03C122
:10388000E01E01E1FF3FF8003FBFFC0F03C1E01E57
:1038900001E0FF3FF8001FBFFC0F03C1E01E01E085
:1038A0007F3FF8000FBFFC0F036000000000000026
:1038B00000000000000007600000000000000000A1
:1038C0000000000006700000000000000000000082
:1038D00000000E38000000000000000000000000A2
:1038E0001C1E000000000000000000000000780F17
:1038F000FFFFFFFFFFFFFFFFFFFFFFFFF001FFFFE5
:10390000FFFFFFFFFFFFFFFFFFFF805374616E6447
:1039100061726420446576696174696F6E3A200053
:103920004D65616E204D65736820486569676874F0
:103930003A200023206F662073616D706C65733AC6
:1039400020000A4D657368206F6E6C79207061727B
:103950007469616C6C7920706F70756C61746564EA
:103960002E0A0A0050726F62696E6720506F696E8E
:1039700074000A50726F62696E67206D657368200B
:10398000706F696E74200020616E642074616B65D5
:103990002061206D6561737572656D656E742E0AA8
:1039A000006D6D20746869636B2E0A00427573693F
:1039B0006E657373204361726420697320005265E1
:1039C0006D6F76652026204D6561737572652042A6
:1039D00065640052656D6F7665207368696D00508F
:1039E0006C616365207368696D20756E6465722013
:1039F0006E6F7A7A6C65004D65736820506F696EE2
:103A000074204D656173757265642061743A20009D
:103A10000A4D657368206F6E6C79207061727469ED
:103A2000616C6C7920706F70756C617465642E0ABE
:103A300000506C616365205368696D2026204D65D8
:103A40006173757265004D6F76696E6720746F20C3
:103A50006E657874004D6573682045646974696E9D
:103A6000672053746F7070656400446F6E65204505
:103A7000646974696E67204D6573680A00446F6EEF
:103A8000652045646974696E67204D6573680046FA
:103A9000696E652054756E696E67204D65736800A8
:103AA00028582C5929206F757473696465207072C9
:103AB000696E7461626C65207261646975732E0A47
:103AC000004F6666736574206F7574206F662062A0
:103AD0006F756E64732E20283020746F2031306D26
:103AE0006D290A0A00496E76616C6964206D617007
:103AF00020747970652E0A0A003F284629616465A2
:103B00002068656967687420666F7220426564206A
:103B10004C6576656C20436F7272656374696F6E75
:103B2000206E6F7420706C61757369626C652E0A0B
:103B30000A003F43616E2774206163746976617483
:103B40006520616E64206465616374697661746583
:103B5000206174207468652073616D652074696DDF
:103B6000652E0A0A00426F746820582026205920CA
:103B70006C6F636174696F6E73206D75737420620E
:103B800065207370656369666965642E0A0A003F83
:103B9000496E76616C696420677269642073697A22
:103BA0006520284A29207370656369666965642009
:103BB00028322D39292E0A0A003F285029686173BE
:103BC000652076616C756520696E76616C6964202C
:103BD00028302D36292E0A0A003F285629657262A0
:103BE0006F7365206C6576656C20696D706C6175AE
:103BF0007369626C652028302D34292E0A0A003F33
:103C0000285229657065746974696F6E20636F75D9
:103C10006E7420696E76616C69642028312B292EC0
:103C20000A0A00446F696E672047323900090000B4
:103C30000A010008000A01000A090000000A000841
:103C4000003C3C373C323C2D3C0000C84155556996
:103C5000425555B7420000FA4255551E43AAAA3FA5
:103C60004300006143AA2A814355D591430080A2B5
:103C70004325532025692F2569005D0A006265648C
:103C800020706C616E65206E6F726D616C203D20DE
:103C90005B00436F756C64206E6F7420636F6D7092
:103CA0006C657465204C5346210054696C74696ED0
:103CB00067206D65736820706F696E7420003F45E2
:103CC00072726F722070726F62696E6720706F69B6
:103CD0006E742E2041626F7274696E67206F70651A
:103CE000726174696F6E2E0A00255320332F3300E2
:103CF00054696C74696E67206D6573682028332F72
:103D000033290A00255320322F330054696C74691B
:103D10006E67206D6573682028322F33290A0043AF
:103D20006F727265637465645F5A3D0054696C74A8
:103D3000696E6720506F696E7400255320312F33F0
:103D40000054696C74696E67206D65736820283152
:103D50002F33290A00646F6E650A00496E73756619
:103D600066696369656E7420646174610A004578F0
:103D7000747261706F6C6174696E67206D657368D1
:103D80002E2E2E006F70656E0054524947474552E3
:103D900045440066696C616D656E74007A5F6D699B
:103DA0006E00795F6D696E00785F6D696E005265B7
:103DB000706F7274696E6720656E6473746F7020C3
:103DC0007374617475730A00486F6D696E6720467D
:103DD00061696C65640047323920503420523939AA
:103DE000392054004732380A473239205031004DCB
:103DF000313137204D657368202569204C6F61642F
:103E0000656400473239204C2569004D3131372037
:103E10004D657368202569205361766564004732DB
:103E20003920532569004C6F616420426564204D40
:103E3000657368004D656D6F727920536C6F740007
:103E40004E6F2053746F7261676500486F6D696EC5
:103E5000672058595A00473239205034205825736A
:103E6000205925732052256900202D2D2D2D2D0040
:103E70004732380047323920532D31004F666620D3
:103E80005072696E746572204261636B7570004791
:103E90003239205431004F757470757420666F721A
:103EA0002043535600473239205430004F75747008
:103EB000757420666F7220486F737400456469746E
:103EC000204D6573680047323920493939390A472E
:103ED00032392050322042205430004D616E7561DD
:103EE0006C6C79204275696C64204D65736800378D
:103EF0002E205361766520426564204D657368000D
:103F0000362E2046696E652054756E6520416C6CB6
:103F100000352E2056616C6964617465204D6573AF
:103F20006800342E2046696E652054756E65204108
:103F30006C6C00332E2056616C6964617465204D91
:103F40006573680047323920503320543000322ED8
:103F500020536D6172742046696C6C2D696E00315E
:103F60002E204275696C6420436F6C64204D65732C
:103F700068000000000000000000000000000000D9
:103F8000B4430000AF430000C843000048420000B3
:103F90004842000080400202040000A0400000A04F
:103FA0004000000040FFFFFF000000010000000192
:103FB00000008000555555000000400033333300A9
:103FC000AAAA2A004992240000002000C7711C0000
:103FD00099991900D1451700555515003BB11300AB
:103FE0002449120011111100000010000F0F0F00E2
:103FF000E3380E0043790D00CCCC0C00C3300C002C
:10400000E8A20B0064210B00AAAA0A00703D0A0076
:104010009DD80900427B090092240900DCD30800E6
:10402000888808001042080000000800F0C107005E
:104030008787070075500700711C07003EEB0600DC
:10404000A1BC06006990060066660600703E060088
:104050006118060017F4050074D105005BB0050077
:10406000B2900500627205005555050078390500CB
:10407000B81E0500050505004EEC040087D40400B9
:10408000A1BD040090A7040049920400C17D040072
:10409000EE690400C7560400444404005C32040086
:1040A0000821040041100400000004003FF0030058
:1040B000F8E0030026D20300C3C30300CCB503001D
:1040C0003AA803000A9B0300388E0300C081030056
:1040D0009F750300D0690300505E03001D53030069
:1040E00034480300913D03003333030016290300D5
:1040F000381F030097150300300C0300030303006F
:104100000BFA020049F10200BAE802005CE002008A
:104110002DD802002DD0020059C80200B0C0020004
:1041200031B90200DAB10200AAAA0200A0A302007B
:10413000BC9C0200FA9502005C8F0200DF8802003E
:1041400082820200457C020027760200277002006E
:10415000436A02007C640200D05E02003F59020004
:10416000C8530200FFFDFCFAF8F6F4F2F0EEECEAB8
:10417000E9E7E5E3E1E0DEDCDAD9D7D5D4D2D0CF88
:10418000CDCBCAC8C7C5C3C2C0BFBDBCBAB9B7B61C
:10419000B4B3B2B0AFADACAAA9A8A6A5A4A2A1A081
:1041A0009E9D9C9A99989795949392908F8E8D8BC3
:1041B0008A8988878684838281807F7E7D7B7A79E5
:1041C0007877767574737271706F6E6D6C6B6A69E7
:1041D0006867666564636261605F5E5D5C5B5A59D7
:1041E00058585756555453525150504F4E4D4C4BB2
:1041F0004A4A4948474646454443424241403F3E79
:104200003E3D3C3B3B3A393838373635353433322E
:10421000323130302F2E2E2D2C2B2B2A29292827D6
:104220002726252524232322212120201F1E1E1D71
:104230001C1C1B1B1A191918181716161515141300
:104240001312121111100F0F0E0E0D0D0C0C0B0A84
:104250000A090908080707060605050404030302FE
:10426000020100005761726E696E673A20486F6DF7
:10427000696E672042756D702044697669736F724C
:10428000203C20310A005072696E742066726F6D96
:10429000204D65646961004D6F76652025736D6DF5
:1042A000004D6F766520302E316D6D004D6F766557
:1042B00020316D6D004D6F76652031306D6D004D94
:1042C0006F7665204178697300486F74656E64206D
:1042D000746F6F20636F6C640045787472756465E9
:1042E00072004D6F7665205A004D6F76652059003B
:1042F0004D6F766520580000002100240027002A19
:10430000002D003000330001010000040107010A04
:104310000100002200250028002B002E003100346F
:104320000002010000050108010B0100002000232C
:1043300000260029002C002F00320000010000039D
:104340000106010901050505050705080808080219
:104350000202020A0A08080404040401010101011E
:104360000101010303030303030303040707070C0D
:104370000C0C0C0C0C0C0C020202020606060606C3
:104380000606060B0B0B0B0B0B0B0B010210202070
:104390000808102040102040800201020108040299
:1043A000010102040810204080804020100804020F
:1043B0000180040201804020100804020108040268
:1043C000010102040810204080010204081020406E
:1043D0008000000A0B02090C0D0E080703040100FF
:1043E00000000000000000000000000000000000CD
:1043F000000000000000000000000000001211108A
:1044000000000000000000000000000000000000AC
:10441000000000000000002053697A653A20004344
:10442000616E6E6F74206F70656E20737562646963
:1044300072200053442063617264206F6B0A006F26
:1044400070656E526F6F74206661696C65640A00F6
:10445000766F6C756D652E696E6974206661696C26
:1044600065640A00534420696E6974206661696C52
:104470000A004D3234004D32332025730046696CFA
:10448000652073656C65637465640A0046696C65D4
:10449000206F70656E65643A2000454E4420535588
:1044A00042524F5554494E450A002220706F730006
:1044B0002220706172656E743A2200535542524F49
:1044C0005554494E452043414C4C207461726765F8
:1044D000743A2200747279696E6720746F20636188
:1044E0006C6C207375622D67636F64652066696C00
:1044F0006573207769746820746F6F206D616E79C1
:10450000206C6576656C732E204D4158206C657665
:10451000656C2069733A310A0044656C6574696F93
:104520006E206661696C65642C2046696C653A2072
:104530000046696C652064656C657465643A005773
:10454000726974696E6720746F2066696C653A20C1
:1045500000646F696E67004E6F7720005072696E5D
:1045600074205061757365640050617573652050E7
:1045700072696E7400534F564F4C2053563033209F
:1045800052656164792E005072696E74696E672E8F
:104590002E2E005072696E742041626F72746564D1
:1045A000004D3235006F70656E206661696C656420
:1045B0002C2046696C653A200020453A00205A3A82
:1045C0000020593A00204A002052004D65736820AF
:1045D000736176656420696E20736C6F7420003F90
:1045E000556E61626C6520746F2073617665206D15
:1045F00065736820646174612E0A0020736C6F74A7
:104600003D00206D65736865735F656E643D0045B0
:1046100032454E443D00206D65736820736C6F74A5
:104620007320617661696C61626C652E0A003F4996
:104630006E76616C696420736C6F742E0A004D6530
:104640007368206C6F616465642066726F6D20739F
:104650006C6F7420003F556E61626C6520746F2032
:104660006C6F6164206D65736820646174612E0AEB
:104670000048617264636F646564204465666175B7
:104680006C742053657474696E6773204C6F616439
:1046900065640A00556E6966696564204265642038
:1046A0004C6576656C696E67003B200020204D36B6
:1046B0003033200020204D34313220530046696CC5
:1046C000616D656E742072756E6F75742073656EA2
:1046D000736F723A0020550046696C616D656E74A7
:1046E000206C6F61642F756E6C6F6164206C656EF9
:1046F000677468733A0020204D3835312058005ACD
:104700002D50726F6265204F6666736574002020BD
:104710004D3230392053004175746F2D52657472DB
:104720006163743A20533D3020746F206469736173
:10473000626C652C203120746F20696E7465727014
:1047400072657420452D6F6E6C79206D6F76657380
:1047500020617320726574726163742F7265636F78
:104760007665720020204D32303820530052656348
:104770006F7665723A20533C6C656E6774683E20B4
:10478000463C756E6974732F6D3E0020204D3230AB
:1047900037205300526574726163743A20533C6C45
:1047A000656E6774683E20463C756E6974732F6D44
:1047B0003E205A3C6C6966743E0020204D343133F3
:1047C000205300506F7765722D4C6F7373205265C4
:1047D000636F766572793A0020204D333031205076
:1047E000005049442073657474696E67733A002001
:1047F000460020480020204D3134352053004D61C3
:1048000074657269616C206865617475702070618F
:1048100072616D65746572733A00206D65736865C9
:10482000732E0A0A00454550524F4D2063616E2099
:10483000686F6C642000416374697665204D657310
:104840006820536C6F743A200020204D34323020A1
:10485000530020204D323036205800486F6D6520BF
:104860006F66667365743A0020204D323035204201
:1048700000416476616E6365643A20423C6D696E06
:104880005F7365676D656E745F74696D655F757381
:104890003E20533C6D696E5F666565647261746548
:1048A0003E20543C6D696E5F74726176656C5F6624
:1048B000656564726174653E204A3C6A756E635F2B
:1048C0006465763E0020204D323034205000416334
:1048D00063656C65726174696F6E2028756E6974AA
:1048E000732F7332293A20503C7072696E745F6185
:1048F0006363656C3E20523C726574726163745FE1
:10490000616363656C3E20543C74726176656C5FD4
:10491000616363656C3E0020204D323031205800C9
:104920004D6178696D756D20416363656C65726179
:1049300074696F6E2028756E6974732F7332293A0B
:104940000020204D3230332058004D6178696D755C
:104950006D206665656472617465732028756E6983
:1049600074732F73293A00537465707320706572E5
:1049700020756E69743A0020204D3230302044306A
:104980000A0020204D3230302044002044697361F9
:10499000626C65640A0046696C616D656E742073B3
:1049A000657474696E67733A0020204D3134392084
:1049B00043203B20556E69747320696E2043656CFB
:1049C000736975730A0020286D6D29002020473215
:1049D00031202020203B20556E69747320696E20A1
:1049E0006D6D000000FA430000FA430000A0400093
:1049F00000C8410000A0420000A0420000C84300DF
:104A000080CF43F4010000F401000064000000E8DE
:104A10000300004F7574616765205265636F7665AA
:104A2000727900256C642E25696D00457874727565
:104A300064656420546F74616C004C6F6E676573BD
:104A400074204A6F622054696D65003E2000546FE7
:104A500074616C205072696E742074696D650043D6
:104A60006F6D706C65746564005072696E7420437C
:104A70006F756E7400313235004245443A455043FB
:104A80004F53203130304B0052756E617761792081
:104A900057617463683A204F4E004D617820546529
:104AA0006D7000323735004D696E2054656D7000B1
:104AB00045313A204550434F53203130304B005060
:104AC0005355004D65616E2057656C6C0050726FD8
:104AD000746F636F6C00312E300042617564003179
:104AE00031353230300074696E7975726C2E636FB7
:104AF0006D2F7772787277666800534F564F4C204F
:104B00005356303100457874727564657273004392
:104B1000696D65646163612F436F7074657254657C
:104B20006320312E362E352000534F564F4C2053E4
:104B300056303300323032302D30332D3331005087
:104B400072696E7465722053746174730054686581
:104B5000726D6973746F727300426F617264204981
:104B60006E666F005072696E74657220496E666F72
:104B7000004D31303030005061726B696E672E2EFF
:104B80002E0000005761697420666F720066696CC0
:104B9000616D656E74206368616E676500746F2077
:104BA0007374617274005761697420666F72006675
:104BB000696C616D656E7420756E6C6F6164000068
:104BC0004E6F7A7A6C652068656174696E67005013
:104BD0006C6561736520776169742E2E2E0000501C
:104BE0007265737320627574746F6E00746F2068E1
:104BF000656174206E6F7A7A6C650000496E73652A
:104C000072742066696C616D656E7400616E6420FB
:104C1000707265737320627574746F6E00746F20A8
:104C2000636F6E74696E7565005761697420666F95
:104C3000720066696C616D656E74206C6F616400F2
:104C400000507265737320427574746F6E00746FD8
:104C500020726573756D65207072696E74000057FF
:104C600061697420666F72207072696E7400746F6F
:104C700020726573756D652E2E2E00005761697464
:104C800020666F720066696C616D656E7420707568
:104C900072676500004361703A008202CA02112403
:104CA0001FBECFEFD1E2DEBFCDBF00E00CBF13E0EF
:104CB000A0E0B2E0E4EAF7E403E00BBF02C0079033
:104CC0000D92A635B107D9F729E1A6E5B3E001C0F9
:104CD0001D92AA3BB207E1F716E2CEE4D6E200E06D
:104CE00006C021970109802FFE010F94C79ECD3485
:104CF000D10780E00807A9F70F945B880D94C0A343
:104D00000C9400002F923F924F925F926F927F928D
:104D10008F929F92AF92BF92CF92DF92EF92FF92CB
:104D20000F931F93CF93DF93CDB7DEB7AD970FB639
:104D3000F894DEBF0FBECDBF8DA7209161032CA7D5
:104D400021E0209361038091B3198D3409F4B3C33A
:104D5000843511F40C94C837873411F00C94CF3794
:104D60008091B1199091B2198A31910509F442C12B
:104D7000E4F4843091053CF4823091050CF05CC081
:104D800097FF31C094C38A30910509F429C124F4F6
:104D9000049709F4E6C08BC38B30910509F425C153
:104DA000459711F40C94D13782C38E31910509F4E3
:104DB00053C13CF48C31910509F43AC10CF41EC185
:104DC00047C18A35910509F406C224F48A9709F48B
:104DD000BCC26DC38B35910509F401C28C359105B8
:104DE00009F402C264C380915811813011F00C940F
:104DF000D1370E94986280917119882311F40C9424
:104E00000C3885E40E94D23D882311F40C940C38B0
:104E100088E50E94D23D81110C940C3889E50E94EE
:104E2000D23D81110C940C388AE50E94D23D81114B
:104E30000C940C380C94DA3720915811213011F071
:104E40000C94D13711E0029709F010E00E949862AB
:104E500019821A821B821C821D821E821F82188662
:104E600082E50E941B3E882309F44BC00E94993DB5
:104E70006B017C0120E030E0A9010F94DA978823D0
:104E800009F455C08091391590913A15A0913B15C0
:104E9000B0913C1588A399A3AAA3BBA380913D150B
:104EA00090913E15A0913F15B09140158CA39DA304
:104EB000AEA3BFA38090360590903705A09038052B
:104EC000B090390540903A0550903B0560903C0504
:104ED00070903D05A501940168A179A18AA19BA1CB
:104EE0000F94DA9781110C943738A30192016CA1C9
:104EF0007DA18EA19FA10F94DA978823C1F00C9415
:104F0000373889E40E941B3E882331F00E94993D86
:104F100069837A838B839C838AE40E941B3E882367
:104F200031F00E94993D6D837E838F83988720E0C6
:104F300030E0A90169817A818B819C810F94DA9795
:104F400081110C94EB3820E030E0A9016D817E8165
:104F50008F8198850F94DA9781110C94EB380C941B
:104F6000FE3880E50E941B3E882329F00E940560E0
:104F70006B017C0103C0C12CD12C760183E50E941A
:104F80001B3E882361F00E94993D20E030E04AE713
:104F900054E40F9440980F9443A06B017C010F944C
:104FA000CF478091B714811105C060E08DE997E08B
:104FB0000F94AD6D0F94715CC60ED71EE81EF91EDE
:104FC0000F94715CDC01CB018C199D09AE09BF09FE
:104FD000B7FD02C00C94D13780E00E94CB55F0CFD2
:104FE00081E00E94376C0C94D13780E00E94376CCE
:104FF0000C94D1370E94D16D0C94D1370E94C7D345
:1050000081110C94D1378CE0EFE7F2E0DE011196CC
:1050100001900D928A95E1F760E070E080E50E94D2
:10502000F35DBE016F5F7F4F0F941A670C94D13709
:10503000809138138770873011F00C94053960E047
:105040008FE40E947F6A81110C94D1370C9405394A
:105050000E9441480C94D1372091E80D3091E90D20
:105060004091EA0D5091EB0D6091391570913A1510
:1050700080913B1590913C150F94D09EAB01BC01E3
:1050800088E50E94DD9069837A838B839C832091DD
:10509000EC0D3091ED0D4091EE0D5091EF0D6091C2
:1050A0003D1570913E1580913F15909140150F94DC
:1050B000D09EAB01BC0189E50E94DD906D837E83AB
:1050C0008F839887BE016B5F7F4FCE0101960E9450
:1050D000C23E882311F40C94D13780E00E94B14382
:1050E0000F94203161E085E40E947F6A01E021E0B5
:1050F00041E0682FCE0101960E9493416B017C0133
:105100009B01AC010F941DA281115FC089809A8020
:10511000AB80BC8020E030E0A901C501B4010F9450
:10512000DA9787FF05C027E137EB41E558EB04C06C
:1051300027E137EB41E558E3C501B4010F94D09E58
:10514000AB01BC0180EF97E00E948E558D809E8060
:10515000AF80B88420E030E0A901C501B4010F940C
:10516000DA9787FF05C027E137EB41E558EB04C02C
:1051700027E137EB41E558E3C501B4010F94D09E18
:10518000AB01BC018BEE97E00E948E5520E030E031
:10519000A901C701B6010F94DA9787FF05C027E17F
:1051A00037EB41E558EB04C027E137EB41E558E325
:1051B000C701B6010F94D09EAB01BC0186EE97E00B
:1051C0000E948E558AE00E9444530F9407310F9439
:1051D0007F330C94D137109260030C94D1378FE059
:1051E000809360030C94D1378091B019882349F1E2
:1051F000893009F0A6C08BE8A82E82E0B82E99E38A
:10520000E92E95E1F92ED12C00E010E0D5018D9129
:105210005D010E941B3E882369F00E94993DF701C1
:105220006083718382839383133011F401E002C0A1
:10523000DD24D3941F5FF4E0EF0EF11C143031F73E
:1052400075C0BBE82B2EB2E03B2E1CE2E12E13E131
:10525000F12E29E335E139A328A309E4C02E05E1A5
:10526000D02E00E010E0D1018D911D010E941B3E67
:10527000882309F44BC00E94993D2B013C01133057
:1052800049F0F60120813181428153810F94CF9EF4
:105290002B013C01A8A1B9A12D913D914D915C91AB
:1052A000C301B2010F94CF9E4B015C012DEB37E39C
:1052B00046E855EB0F9430A187FD0AC02DEB37E38C
:1052C00046E855E3C501B4010F94DA971816F4F4D3
:1052D000133051F44092451550924615609247158F
:1052E0007092481501E012C0A5019401F701608198
:1052F0007181828193810F94D09ED7016D937D93AC
:105300008D939C931397812F0F94614D1F5FB4E091
:10531000EB0EF11CE8A1F9A13496F9A3E8A3F4E09F
:10532000CF0ED11C143009F09ECF05C0DD2019F03E
:105330000F947D3306C0002321F085E495E10F949E
:10534000AF4B0F947F330C94D1378091581181303B
:1053500011F00C94D13789E40E941B3E082F88235A
:1053600021F00E94953DE82E01C0E12C8AE40E94C4
:105370001B3E182F882321F00E94953DF82E01C076
:10538000F12C002319F029E02E1528F0112349F003
:1053900039E03F1530F488EF97E00E944B530C94AE
:1053A000D13780E1E9E3F5E1A6E3B5E001900D92A4
:1053B0008A95E1F7002359F08E2D0E948D3F60936E
:1053C000360570933705809338059093390511237E
:1053D00059F08F2D0E948D3F60933A0570933B05E5
:1053E00080933C0590933D0560E080E50E947F6AD4
:1053F0008823C1F10023D1F02091E80D3091E90D0F
:105400004091EA0D5091EB0D609136057091370592
:1054100080913805909139050F94CF9E60933605A1
:105420007093370580933805909339051123D1F097
:105430002091EC0D3091ED0D4091EE0D5091EF0D5E
:1054400060913A0570913B0580913C0590913D0536
:105450000F94CF9E60933A0570933B0580933C0573
:1054600090933D0540E050E0BA0186E40E94DD9053
:105470006B017C0120E030E0A9010F9430A11816E7
:105480004CF420E030E040E752E4C701B6010F944D
:10549000CA9F03C060E070E0CB0169837A838B838D
:1054A0009C83CE0101960F944F3D0C94D1370E94FE
:1054B000B9D30C94D1378091B1199091B219883732
:1054C000910509F4C8C70CF086C18D34910509F423
:1054D00090C40CF095C08A31910509F4A0C39CF5E5
:1054E0008431910509F40EC37CF48131910509F4EE
:1054F000E8C22CF4029708F4ABC20C94C53742976B
:1055000009F4A8C60C94C5378731910509F41FC367
:105510008CF48531910509F416C3469711F00C946B
:10552000C5370F94446180919F16877F80939F16A3
:105530000C94D1378831910509F420C3499709F4B7
:1055400059C30C94C5378032910509F4F5C3ECF5C5
:105550008D31910509F4D9C384F48B31910509F497
:105560006CC34C9711F00C94C53780910E05909147
:105570000F050F945B620C94D1378E31910509F4BD
:10558000CBC34F9711F00C94C5370E941FC06C8F8E
:105590007D8F8E8F9F8FBE016F5F7F4FCE014C96A8
:1055A0000E94F19460E0CE0101960F94296E0E9452
:1055B0007153BE016F5F7F4F8FE898E00E945A538E
:1055C0008AE00E9444530C94D1378934910509F440
:1055D000F9C34CF48132910509F4D7C38A9709F4D1
:1055E000D8C30C94C5378B34910509F4FEC38C34B1
:1055F000910511F00C94C5370E946EC00C94D13700
:105600008B36910509F435C5D4F58435910509F437
:1056100021C6E4F48135910509F401C634F48E34D1
:10562000910509F4EAC30C94C5378235910509F454
:105630000AC68335910511F00C94C537809160033B
:105640008F7E8062809360030C94D13788369105F9
:1056500009F466C454F48535910509F4FEC58C350A
:10566000910509F41DC60C94C5378936910509F4D6
:10567000D0C48A36910509F4E0C40C94C53781374B
:10568000910509F458C50CF58E36910509F4F9C455
:1056900054F48C36910509F449C58D36910509F409
:1056A00064C40C94C5378F36910509F4FBC4803768
:1056B000910511F00C94C53741E060E070E08CE199
:1056C00099E00E9475530C94D1378537910509F400
:1056D00078C60CF073C08237910509F46BC6833726
:1056E000910511F00C94C5378CE79AE00E944B535A
:1056F00060E08CE69AE00F94348760E087E59AE0FA
:105700000F94348761E088E59FE10F94348761E06E
:105710008CE49AE00F94348761E08CE39AE00F9474
:10572000348760E083E39AE00F94348761E089E294
:105730009AE00F94348761E08FE19AE00F94348708
:1057400061E087E19AE00F94348761E089E09AE0B4
:105750000F94348761E08BEF99E00F94348760E019
:105760008CEE99E00F94348760E08EED99E00F9411
:10577000348760E088EC99E00F94348760E087EB31
:1057800099E00F94348760E088EA99E00F943487B9
:1057900060E083E999E00F94348761E080E899E064
:1057A0000F94348760E083E799E00F94348760E0DA
:1057B0008FE599E00F9434870C94D13786379105A3
:1057C00009F40FC68737910511F00C94C5370F9473
:1057D00013340C94D1378E32A1E09A0711F40C9453
:1057E0002E360CF07DC08E3C910509F433C7D4F5FC
:1057F0008E3B910509F4DBC4E4F48C38910509F47F
:10580000BCC46CF48937910511F00C94C537109223
:105810000D0F10920C0F0F946A340C94D13781390C
:10582000910509F41FC68B39910509F4D2C40C9473
:10583000C5378B3C910509F4DDC654F4883C9105CD
:1058400009F46BC6893C910509F4B1C60C94C537BF
:105850008C3C910509F4EDC68D3C910509F4ECC62C
:105860000C94C5378D3D910509F4D8C7CCF4813D22
:10587000910509F49CC754F48F3C910509F409C7BC
:10588000803D910509F449C70C94C537833D9105C6
:1058900009F49AC78C3D910509F499C70C94C53752
:1058A0008232E1E09E0711F40C94473564F4823EA5
:1058B000910511F40C9464348831914011F40C94E6
:1058C000B0340C94C5378C3231E0930711F40C944A
:1058D0009A358D32914011F40C94AF350C94C53744
:1058E000853FB1E09B0711F40C94E5360CF051C0F4
:1058F0008C39F1E09F0711F40C947F362CF5813937
:1059000031E0930711F40C9475367CF48F32B1E0DA
:105910009B0711F40C9472368039914011F00C946D
:10592000C5370F94CF470C94D1378239F1E09F07E8
:1059300011F40C947A368A39914011F00C94C537E1
:105940000E9420510C94D137853A31E0930711F42D
:105950000C9485367CF48D39B1E09B0711F40C94DE
:105960008E37843A914011F00C94C5370E940E6135
:105970000C94D1378C3AF1E09F0711F40C948836DF
:10598000843F914011F00C94C5370E94C2B40C942E
:10599000D1378B3532E0930711F40C9404375CF562
:1059A000883FB1E09B0711F40C94EB36ACF4863FD2
:1059B000F1E09F0711F40C94E836873F914011F015
:1059C0000C94C53761E083E50E947F6A91E08927E6
:1059D0000F9496780C94D1378C3032E0930711F401
:1059E0000C94FC368835924011F00C94C5370E9417
:1059F000A8630C94D137873EB3E09B0711F40C9455
:105A00008037CCF48335F3E09F0711F40C947D3795
:105A1000803A934011F00C94C53720910E053091D7
:105A20000F0590919F16926090939F16C9010F9455
:105A30005B620C94D137883E33E0930711F40C94E9
:105A4000A537893E934011F40C94A8370C94C537C0
:105A500080E50E941B3E882329F00E9405606B01AF
:105A60007C0103C0C12CD12C760183E50E941B3E32
:105A7000882361F00E94993D20E030E04AE754E439
:105A80000F9440980F9443A06B017C010F94CF4773
:105A900080910E0590910F05009721F061E00F9421
:105AA000296E05C060E087E198E00F94AD6D40E09D
:105AB000C701B6010E94245B80E00F944E6E0C94E7
:105AC000D1378091000584FF02C00C94283A809160
:105AD000020587FF02C00C94283A80910305837069
